S01E0000324368616E6E656C205243204C4544204452495645522E7372656385
S11300000C9449040C9483040C9466040C946604C4
S11300100C9466040C9466040C9466040C94E90431
S11300200C9466040C9466040C9466040C946604A4
S11300300C9466040C9466040C9466040C94660494
S11300400C9466040C9466040C9466040C94660484
S11300500C9466040C9466040C9466040C94660474
S11300600C9466040C946604640738073C07BF06C6
S1130070CC06D806E506F106FE060A07170723078D
S11300802E076A076A074007440748076A074C07B0
S11300905807FF03FD03FA03F803F603F403F2031E
S11300A0F003EE03ED03EB03EA03E903E803E803DB
S11300B0E703E703E603E603E603E503E503E503F5
S11300C0E503E403E403E403E403E303E303E303F6
S11300D0E303E203E203E203E203E103E103E103F6
S11300E0E103E003E003E003E003DF03DF03DF03F6
S11300F0DF03DE03DE03DE03DE03DD03DD03DD03F6
S1130100DD03DC03DC03DC03DC03DB03DB03DB03F5
S1130110DB03DA03DA03DA03DA03D903D903D903F5
S1130120D903D803D803D803D803D703D703D703F5
S1130130D703D603D603D603D603D503D503D503F5
S1130140D503D403D403D403D403D303D303D303F5
S1130150D303D203D203D203D203D103D103D103F5
S1130160D103D003D003D003D003CF03CF03CF03F5
S1130170CF03CE03CE03CE03CE03CD03CD03CD03F5
S1130180CD03CC03CC03CC03CC03CB03CB03CB03F5
S1130190CB03CA03CA03CA03CA03C903C903C903F5
S11301A0C803C803C803C803C703C703C703C703F7
S11301B0C603C603C603C603C503C503C503C403F8
S11301C0C403C403C403C303C303C303C303C203F9
S11301D0C203C203C103C103C103C103C003C003FB
S11301E0C003C003BF03BF03BF03BE03BE03BE03FC
S11301F0BE03BD03BD03BD03BC03BC03BC03BC03FE
S1130200BB03BB03BB03BA03BA03BA03B903B90301
S1130210B903B903B803B803B803B703B703B70303
S1130220B703B603B603B603B503B503B503B40306
S1130230B403B403B303B303B303B303B203B2030A
S1130240B203B103B103B103B003B003B003AF030E
S1130250AF03AF03AE03AE03AE03AD03AD03AD0313
S1130260AC03AC03AC03AB03AB03AB03AA03AA0319
S1130270AA03A903A903A903A803A803A803A7031E
S1130280A703A703A603A603A603A503A503A50323
S1130290A403A403A403A303A303A303A203A20329
S11302A0A103A103A103A003A003A0039F039F0331
S11302B09F039E039E039D039D039D039C039C0338
S11302C09C039B039B039A039A039A039903990340
S11302D09803980398039703970397039603960349
S11302E09503950395039403940393039303930352
S11302F092039203910391039003900390038F035D
S11303008F038E038E038E038D038D038C038C0366
S11303108B038B038B038A038A0389038903880372
S1130320880387038703870386038603850385037E
S1130330840384038303830383038203820381038B
S11303408103800380037F037F037E037E037D0399
S11303507D037C037C037B037B037B037A037A03A7
S113036079037903780378037703770376037603B5
S113037075037503740374037303730372037203C5
S11303807103700370036F036F036E036E036D03D9
S11303906D036C036C036B036B036A036A036903E9
S11303A069036803670367036603660365036503FC
S11303B06403640363036203620361036103600310
S11303C060035F035E035E035D035D035C035C0324
S11303D05B035A035A03590359035803570357033A
S11303E05603560355035403540353035303520350
S11303F051035103500350034F034E034E034D0367
S11304004C034C034B034A034A034903490348037F
S11304104703470346034503450344034303430398
S113042042034103410340033F033F033E033D03B3
S11304303D033C033B033B033A03390338033803CE
S113044037033603360335033403340333033203EB
S11304503103310330032F032F032E032D032C0309
S11304602C032B032A032903290328032703260328
S11304702603250324032303230322032103200348
S11304801F031F031E031D031C031C031B031A036A
S1130490190318031803170316031503140314038D
S11304A0130312031103100310030F030E030D03B0
S11304B00C030B030B030A030903080307030603D6
S11304C00503050304030303020301030003FF02FE
S11304D0FF02FE02FD02FC02FB02FA02F902F8022C
S11304E0F702F702F602F502F402F302F202F10255
S11304F0F002EF02EE02ED02ED02EC02EB02EA0280
S1130500E902E802E702E602E502E402E302E202AB
S1130510E102E002DF02DE02DD02DC02DB02DA02DB
S1130520D902D802D702D602D502D402D302D2020B
S1130530D102D002CF02CE02CD02CC02CB02CA023B
S1130540C902C802C702C602C502C402C302C2026B
S1130550C102C002BF02BE02BD02BC02BB02B9029C
S1130560B802B702B602B502B402B302B202B102D3
S1130570B002AF02AD02AC02AB02AA02A902A80209
S1130580A702A602A402A302A202A102A0029F0241
S11305909E029C029B029A0299029802970295027B
S11305A094029302920291028F028E028D028C02B7
S11305B08B028902880287028602850283028202F4
S11305C0810280027E027D027C027B027902780233
S11305D07702760274027302720271026F026E0273
S11305E06D026B026A0269026702660265026402B6
S11305F06202610260025E025D025C025A025902FA
S11306005802560255025402520251024F024E023F
S11306104D024B024A024902470246024402430287
S1130620420240023F023D023C023B0239023802D0
S1130630360235023302320230022F022E022C021D
S11306402B0229022802260225022302220220026A
S11306501F021D021C021A021902170216021402BA
S11306601302110210020E020D020B020A0208020A
S113067006020502030202020002FF01FD01FB0162
S1130680FA01F801F701F501F401F201F001EF01BB
S1130690ED01EB01EA01E801E701E501E301E20113
S11306A0E001DE01DD01DB01D901D801D601D4016D
S11306B0D301D101CF01CE01CC01CA01C901C701C7
S11306C0C501C401C201C001BE01BD01BB01B90124
S11306D0B801B601B401B201B101AF01AD01AB0182
S11306E0AA01A801A601A401A301A1019F019D01E2
S11306F09C019A01980196019501930191018F0142
S11307008D018C018A0188018601840183018101A4
S11307107F017D017B017901780176017401720109
S113072070016E016D016B0169016701650163016F
S1130730610160015E015C015A01580156015401D6
S1130740520151014F014D014B014901470145013E
S11307504301410140013E013C013A0138013601A7
S11307603401320130012E012C012A012901270113
S11307702501230121011F011D011B01190117017D
S11307801501130111010F010D010B0109010701ED
S11307900501040102010001FE00FC00FA00F8005A
S11307A0F600F400F200F000EE00EC00EA00E800CD
S11307B0E600E400E200E000DE00DC00DA00D8003D
S11307C0D600D400D200D000CE00CC00CA00C800AD
S11307D0C600C400C200C000BE00BC00BA00B8001D
S11307E0B600B400B200AF00AD00AB00A900A70092
S11307F0A500A300A1009F009D009B009900970005
S11308009500930091008F008D008B008900870074
S11308108500830081007E007C007A0078007600E9
S11308207400720070006E006C006A00680066005C
S11308306400620060005D005B00590057005500D1
S1130840530051004F004D004B0049004700450044
S1130850430040003E003C003A00380036003400BB
S1130860320030002E002C002A002800250023002E
S113087021001F001D001B001900170015001300A4
S113088011000F000C000A0008000600040002001A
S1130890000011241FBECFEFD8E0DEBFCDBF11E0B2
S11308A0A0E0B1E0E0EBF3E102C005900D92AC32C0
S11308B0B107D9F721E0ACE2B1E001C01D92A03646
S11308C0B207E1F70E9447090C94D6090C94000082
S11308D0E9E6F0E0908181E089278083089582E051
S11308E08093B0008093B1008093700083E680937E
S11308F0B300089552985A98E9E6F0E08081826046
S11309008083E89A08951F920F920FB60F921124D4
S11309102F933F934F935F936F937F938F939F9303
S1130920AF93BF93EF93FF9380916900817080939D
S1130930490180914801882329F00E94680481E0DC
S113094080933601FF91EF91BF91AF919F918F9169
S11309507F916F915F914F913F912F910F900FBEB7
S11309600F901F90189510922C0187E080934A01F4
S11309701092370110924701E9E6F0E0808182602D
S11309808083E89A81E08093480110923F0110929D
S113099040011092410110924201089510923601D3
S11309A010924901109235011092340110925001B5
S11309B010924F01109239011092380186E1809310
S11309C03E010E946F040E947A040E94B30478944A
S11309D008951F920F920FB60F9211242F933F93F5
S11309E04F935F936F937F938F939F93AF93BF9333
S11309F0EF93FF9380913401909135010196909388
S1130A0035018093340180914F01909150010196FA
S1130A109093500180934F0180912D0190912E016C
S1130A20A0912F01B09130010196A11DB11D8093B9
S1130A302D0190932E01A0932F01B093300140918A
S1130A402D0150912E0160912F0170913001809100
S1130A50430190914401A0914501B091460148178A
S1130A6059076A077B0759F410922D0110922E0141
S1130A7010922F011092300181E080933101809116
S1130A803A0190913B01A0913C01B0913D01019646
S1130A90A11DB11D80933A0190933B01A0933C01A9
S1130AA0B0933D0140913A0150913B0160913C016A
S1130AB070913D0180914B0190914C01A0914D01A9
S1130AC0B0914E01481759076A077B0759F41092F1
S1130AD03A0110923B0110923C0110923D0181E0D9
S1130AE08093510180912C01833049F480914F010E
S1130AF0909150018437974211F40E94B30480917D
S1130B002C018430A9F480914F01909150018834D4
S1130B10984029F41092360181E080934801809135
S1130B204F0190915001803C984011F40E94B3040D
S1130B30FF91EF91BF91AF919F918F917F916F91B1
S1130B405F914F913F912F910F900FBE0F901F9087
S1130B50189580912C01823009F449C028F4882327
S1130B6061F08130B1F00895843009F4C3C008F411
S1130B70B1C0853009F4CAC00895109235011092AD
S1130B8034011092500110924F0181E080932C01A6
S1130B900895809149018823B9F0813009F0CEC0CD
S1130BA080913401909135019093390180933801FB
S1130BB010923501109234018A5A9109459708F42C
S1130BC0BDC00E94B3040895809134019091350111
S1130BD0909339018093380180559109459718F015
S1130BE00E94B304089582E080932C0108958091BB
S1130BF04901882341F0813009F0A0C010923501E9
S1130C0010923401089580913401909135019093AC
S1130C103901809338014F97039788F4E0913701A5
S1130C20F0E0E15CFE4F81E090E000904A0102C0F8
S1130C30880F991F0A94E2F79081892B8083809111
S1130C404A01811143C050913701511107C080916D
S1130C503F01823FA1F10E94B3040895513039F459
S1130C60809140018A3059F10E94B30408955330B1
S1130C7031F560913E01662311F17091410180913B
S1130C800001871316C007C09C014081019632966B
S1130C90471313C002C020E030E0F901EE0FFF1F3C
S1130CA0E050FF4F81818093470183E080932C01C2
S1130CB00895E2E0F1E081E090E0861728F387E010
S1130CC080934A015F5F5093370108958150809368
S1130CD04A01089580914901811130C01092350173
S1130CE0109234011092500110924F0185E08093CC
S1130CF02C01089510923501109234011092500184
S1130D0010924F0185E080932C0108958091340165
S1130D1090913501909339018093380110923501F7
S1130D20109234018A5A9109459718F00E94B3042D
S1130D3008951092480184E080932C01089584B1B1
S1130D40866084B9E0E8F0E08081806F80838081F0
S1130D5083608083E1E8F0E0808188608083808123
S1130D608160808308958091470190E085319105E9
S1130D7008F0B0C0FC01EC5CFF4F0C94D0098FEF7D
S1130D8093E090935E0180935D0182E080935A0129
S1130D9081E080935F0108958FEF93E09093570172
S1130DA08093560182E080935A0180935F010895F5
S1130DB088E092E090935E0180935D0182E08093ED
S1130DC05A0181E080935F01089588E092E0909356
S1130DD057018093560182E080935A0180935F010A
S1130DE008958AEF90E090935E0180935D0182E024
S1130DF080935A0181E080935F0108958AEF90E027
S1130E00909357018093560182E080935A01809316
S1130E105F01089584E190E090935E0180935D0109
S1130E2082E080935A0181E080935F01089584E118
S1130E3090E0909357018093560182E080935A0189
S1130E4080935F01089510925E0110925D0182E02B
S1130E5080935A0181E080935F01089510925701B5
S1130E601092560182E080935A0180935F010895A5
S1130E7081E080935A01089581E080935A01089596
S1130E8081E080935F01089583E080935F0108957A
S1130E9082E080935F01089510925E0110925D01DB
S1130EA0109257011092560183E080935A010895DD
S1130EB010925E0110925D0110925701109256013A
S1130EC083E080935A01089580915A01813011F48E
S1130ED010925A01089580913101882309F46EC05B
S1130EE01092310140915A01413041F580915F01E6
S1130EF08D7F813009F054C080915801823069F4AB
S1130F008091540190915501009709F449C00197CB
S1130F10909355018093540143C0813009F040C03F
S1130F2080915401909155018F3F23E09207C0F5C1
S1130F300196909355018093540132C0423029F4B4
S1130F4080915F01813061F502C0433049F5209101
S1130F5054013091550180915D0190915E01821799
S1130F60930730F4215031093093550120935401F3
S1130F7020915401309155012817390730F42F5F1F
S1130F803F4F3093550120935401423049F420914E
S1130F905401309155018217930711F410925A01AC
S1130FA0E0915401F0915501EE0FFF1FEE56FF4FF3
S1130FB08591949190938900809388008091510148
S1130FC0882309F46EC01092510140915A014130B6
S1130FD041F580915F018250823008F054C08091C5
S1130FE05801823069F480915B0190915C01009713
S1130FF009F449C0019790935C0180935B0143C05D
S1131000813009F040C080915B0190915C018F3F79
S113101023E09207C0F5019690935C0180935B01F5
S113102032C0423029F480915F01823061F502C000
S1131030433049F520915B0130915C018091560168
S1131040909157018217930730F42150310930935E
S11310505C0120935B0120915B0130915C012817B6
S1131060390730F42F5F3F4F30935C0120935B01CD
S1131070423049F420915B0130915C01821793075F
S113108011F410925A01E0915B01F0915C01EE0FB2
S1131090FF1FEE56FF4F8591949190938B008093A0
S11310A08A0080915A01833071F4809154019091A7
S11310B05501892B41F480915B0190915C01892B4E
S11310C011F410925A01089580915A018130A9F4C3
S11310D082E890E0A0E0B0E0809343019093440163
S11310E0A0934501B093460180934B0190934C012A
S11310F0A0934D01B0934E01B9C0823009F04EC0A7
S113110020915D0130915E018091540190915501CF
S113111028173907D9F0A901481B590B9A0122F461
S113112022273327241B350B442737FD4095542FA2
S113113060EE7EE280E090E00E94AE0920934301DD
S11311403093440140934501509346012091560148
S11311503091570180915B0190915C012817390708
S113116009F484C0A901481B590B9A0122F42227CF
S11311703327241B350B442737FD4095542F60EE4D
S11311807EE280E090E00E94AE0920934B01309310
S11311904C0140934D0150934E0168C0833009F0D7
S11311A065C080915801833119F0843189F15EC0A2
S11311B020915401309155012115310581F040E011
S11311C050E060E87FE482E190E00E94AE09209361
S11311D043013093440140934501509346012091CB
S11311E05B0130915C012115310509F43FC040E0F9
S11311F050E060E87FE482E190E00E94AE09209331
S11312004B0130934C0140934D0150934E012EC03D
S113121020915401309155012115310581F040E0B0
S113122050E060E07BE187EB90E00E94AE09209300
S1131230430130934401409345015093460120916A
S11312405B0130915C012115310581F040E050E0F3
S113125060E07BE187EB90E00E94AE0920934B01B4
S113126030934C0140934D0150934E0110922D0147
S113127010922E0110922F011092300110923A0117
S113128010923B0110923C0110923D01089587B1E8
S11312908F6087B988E0419A429A409A439A2FEF27
S11312A036E791E0215030409040E1F700C0000063
S11312B041984298409843982FEF36E791E02150A7
S11312C030409040E1F700C00000815021F70E94B7
S11312D09F060E94CE0482E990E0FC01259134919E
S11312E03093890020938800FC0185919491909318
S11312F08B0080938A001092580181E080935F01F3
S113130010925A0180913601882321F010923601FF
S11313100E94A9058091470190915801891731F0E5
S1131320809358010E94B3060E94640880915A0178
S1131330882369F00E946B0780915A01813009F477
S1131340439A80915A018250823008F4409A8091E5
S11313505A018111D7CF43984098D4CFA1E21A2ED5
S1131360AA1BBB1BFD010DC0AA1FBB1FEE1FFF1F45
S1131370A217B307E407F50720F0A21BB30BE40B95
S1131380F50B661F771F881F991F1A9469F76095DC
S11313907095809590959B01AC01BD01CF01089596
S11313A0EE0FFF1F0590F491E02D0994F894FFCF00
S11313B0FF00C80128024003C00420053006E007EE
S11313C0A0085009600AB00B880C100DD00E680FED
S10F13D0E810A811D8123813B8147815CE
S9030000FC
